:100000000C9462000C948A000C948A000C948A0070
:100010000C948A000C948A000C948A000C948A0038
:100020000C948A000C948A000C948A000C948A0028
:100030000C948A000C948A000C948A000C948A0018
:100040000C9406040C948A000C9476040C945004CE
:100050000C948A000C948A000C948A000C948A00F8
:100060000C948A000C948A000000000024002700F1
:100070002A0000000000250028002B0000000000DE
:1000800023002600290004040404040404040202DA
:100090000202020203030303030301020408102007
:1000A0004080010204081020010204081020000012
:1000B0000008000201000003040700000000000027
:1000C0000000910811241FBECFEFD8E0DEBFCDBFE6
:1000D00011E0A0E0B1E0E6E9F1E102C005900D9287
:1000E000AC31B107D9F722E0ACE1B1E001C01D921B
:1000F000A43EB207E1F710E0C2E6D0E004C02197C9
:10010000FE010E94BE08C136D107C9F70E94A804AB
:100110000C94C9080C940000833081F028F48130DD
:1001200099F08230A1F008958730A9F08830B9F0B5
:100130008430D1F4809180008F7D03C08091800055
:100140008F7780938000089584B58F7702C084B53F
:100150008F7D84BD08958091B0008F7703C080911A
:10016000B0008F7D8093B00008951F93CF93DF93ED
:10017000282F30E0F901E255FF4F8491F901E6564E
:10018000FF4FD491F901EA57FF4FC491CC23C1F03E
:10019000162F81110E948C00EC2FF0E0EE0FFF1F54
:1001A000EE58FF4FA591B4919FB7F894111104C078
:1001B0008C91D095D82302C0EC91DE2BDC939FBFAD
:1001C000DF91CF911F9108958F929F92AF92BF922E
:1001D000CF92DF92EF92FF920F931F93CF93DF9313
:1001E000C82F08E010E06AEBE62E60E0F62E76EA13
:1001F000C72E70E0D72EE2E9AE2EE0E0BE2E6C2FC7
:10020000661F6627661F8BE00E94B50061E08DE0E7
:100210000E94B50080914302909144028230910582
:1002200038F0880F991F880F991F05970197F1F7EC
:10023000D0E04E01880C991CF7018491F601C4911D
:10024000F501D491DD2379F081110E948C00ED2F0E
:10025000F0E0EE0FFF1FE458FF4FA591B4918C9191
:100260008C23C1E009F4C0E0C82960E08DE00E9461
:10027000B50080914302909144028230910538F09C
:10028000880F991F880F991F05970197F1F7015063
:10029000110909F0B4CF8C2FDF91CF911F910F91ED
:1002A000FF90EF90DF90CF90BF90AF909F908F9096
:1002B0000895CF93DF9390E0FC01E656FF4F249121
:1002C000FC01EA57FF4F8491882361F190E0880F89
:1002D000991FFC01E859FF4FC591D491FC01EE58DC
:1002E000FF4FA591B491611109C09FB7F89488811F
:1002F000209582238883EC912E230BC0623061F419
:100300009FB7F8948881322F309583238883EC91AE
:100310002E2B2C939FBF06C08FB7F894E8812E2B0D
:1003200028838FBFDF91CF9108953FB7F8948091D4
:100330003F0290914002A0914102B091420226B545
:10034000A89B05C02F3F19F00196A11DB11D3FBF0D
:10035000BA2FA92F982F8827820F911DA11DB11D9B
:10036000BC01CD0142E0660F771F881F991F4A9597
:10037000D1F708958F929F92AF92BF92CF92DF9262
:10038000EF92FF926B017C010E9495014B015C0191
:10039000C114D104E104F104F1F00E949501DC01E3
:1003A000CB0188199909AA09BB09883E9340A10588
:1003B000B10570F321E0C21AD108E108F10888EE16
:1003C000880E83E0981EA11CB11CC114D104E10465
:1003D000F10419F7DDCFFF90EF90DF90CF90BF9041
:1003E000AF909F908F9008951F93CF93DF93182F16
:1003F000C3E0D0E061E0812F0E94B5006EE170E0C3
:1004000080E090E00E94BA0160E0812F0E94B50078
:100410006EE170E080E090E00E94BA01219751F710
:10042000DF91CF911F910895CF92DF92EF92FF92CB
:100430000F931F93CF93DF936C017A018B01C0E080
:10044000D0E0CE15DF0581F0D8016D918D01D60188
:10045000ED91FC910190F081E02DC6010995892B69
:1004600011F02196EECF7E01C701DF91CF911F9150
:100470000F91FF90EF90DF90CF900895089580E066
:1004800090E00895FC01538D448D252F30E0842F9A
:1004900090E0821B930B541710F0CF9608950197AC
:1004A0000895FC01918D828D981761F0828DDF0196
:1004B000A80FB11D5D968C91928D9F5F9F73928F57
:1004C00090E008958FEF9FEF0895FC01918D828D4C
:1004D000981731F0828DE80FF11D858D90E0089519
:1004E0008FEF9FEF0895FC01918D228D892F90E071
:1004F000805C9F4F821B91098F739927089587E431
:1005000092E00E94730221E0892B09F420E0822FFF
:100510000895FC01848DDF01A80FB11DA35ABF4FC0
:100520002C91848D90E001968F739927848FA689F2
:10053000B7892C93A089B1898C91837080648C9346
:10054000938D848D981306C00288F389E02D8081F5
:100550008F7D80830895EF92FF920F931F93CF9327
:10056000DF93EC0181E0888F9B8D8C8D981305C003
:10057000E889F989808185FD26C0F62E0B8D10E073
:100580000F5F1F4F0F731127E02E8C8DE8120CC0E8
:100590000FB607FCFACFE889F989808185FFF5CF8E
:1005A000CE010E948902F1CF8B8DFE01E80FF11D73
:1005B000E35AFF4FF0829FB7F8940B8FEA89FB89CB
:1005C000808180620AC09FB7F894EE89FF896083BA
:1005D000E889F98980818370806480839FBF81E08E
:1005E00090E0DF91CF911F910F91FF90EF900895D0
:1005F000682F87E492E00C94AB02CF93DF93EC0179
:10060000888D8823C9F0EA89FB89808185FD05C032
:10061000A889B9898C9186FD0FC00FB607FCF5CF6C
:10062000808185FFF2CFA889B9898C9185FFEDCFB4
:10063000CE010E948902E7CFDF91CF91089580E03B
:1006400090E0892B29F00E947F0281110C94000018
:100650000895809136029091370201969093370267
:100660008093360285E10C94F80220912B013091A1
:100670002C0180913402909135022032310511F421
:10068000807F08952034310511F4807E089520384C
:10069000310511F4807C08952115314009F48078EA
:1006A00008951F93CF93DF93162FD42FC22F0E944C
:1006B000E400812F0E94E4008D2F0E94E4008C2F23
:1006C000DF91CF911F910C94E400CF93DF93D82F4B
:1006D000C92F60E087E00E94B50020E04D2F6C2F0D
:1006E0008CE40E9451036EE170E080E090E00E9493
:1006F000BA0161E087E0DF91CF910C94B50087E407
:1007000092E00E947302892BD1F387E492E00E9469
:1007100051020895CF93C82F0E947F03803241F485
:1007200084E10E94F8028C2F0E94F80280E10AC046
:100730008091360290913702019690933702809310
:10074000360285E1CF910C94F8020E947F0380323B
:1007500029F484E10E94F80280E10AC08091360207
:10076000909137020196909337028093360285E18B
:100770000C94F8020F931F93CF93DF938C01C3E384
:10078000D1E0CE01835391408017910724F40E9459
:100790007F038993F6CFDF91CF911F910F91089539
:1007A000EF92FF920F931F93CF93DF93EC018B0196
:1007B000CB010E94BA0360E087E00E94B50083E3AA
:1007C000E82E81E0F82E0C0F1D1FC017D10781F015
:1007D000F70121917F014C2F6D2F80EC0E94510376
:1007E0006DE270E080E090E00E94BA012196EDCFCA
:1007F00061E087E00E94B50080E1DF91CF911F9119
:100800000F91FF90EF9008950E94C4081F920F92DD
:100810000FB60F9211242F933F938F939F93AF9313
:10082000BF9380913B0290913C02A0913D02B09118
:100830003E0230913A0223E0230F2D3720F4019637
:10084000A11DB11D05C026E8230F0296A11DB11DF3
:1008500020933A0280933B0290933C02A0933D0286
:10086000B0933E0280913F0290914002A0914102DC
:10087000B09142020196A11DB11D80933F02909359
:100880004002A0934102B0934202BF91AF919F9169
:100890008F913F912F910F900FBE0F901F90189541
:1008A0001F920F920FB60F9211242F933F934F93E5
:1008B0005F936F937F938F939F93AF93BF93EF93C8
:1008C000FF9387E492E00E948902FF91EF91BF912C
:1008D000AF919F918F917F916F915F914F913F91D8
:1008E0002F910F900FBE0F901F9018951F920F928F
:1008F0000FB60F9211242F938F939F93EF93FF9333
:10090000E0915702F09158028081E0915D02F091F0
:100910005E0282FD12C09081809160028F5F8F73B2
:1009200020916102821751F0E0916002F0E0E95BF2
:10093000FD4F958F8093600201C08081FF91EF9100
:100940009F918F912F910F900FBE0F901F90189530
:10095000789484B5826084BD84B5816084BD85B59A
:10096000826085BD85B5816085BD80916E008160A6
:1009700080936E001092810080918100826080934C
:10098000810080918100816080938100809180004E
:100990008160809380008091B10084608093B10079
:1009A0008091B00081608093B00080917A00846073
:1009B00080937A0080917A00826080937A0080919F
:1009C0007A00816080937A0080917A0080688093B9
:1009D0007A001092C100E0915702F091580282E033
:1009E0008083E0915302F09154021082E09155020D
:1009F000F091560287E6808310925F02E0915B02DD
:100A0000F0915C0286E08083E0915902F0915A02F5
:100A1000808180618083E0915902F0915A02808147
:100A200088608083E0915902F0915A028081806849
:100A30008083E0915902F0915A0280818F7D8083FA
:100A400061E087E00E94590187E090E00E94F40194
:100A500061E088E00E94590188E090E00E94F40182
:100A600061E089E00E94590189E090E00E94F40170
:100A700017EB212E10E0312E04E0802E912CA12CBA
:100A8000B12C8BE8482E5524539466246394712C22
:100A90008091380290913902892B11F061E001C0F8
:100AA00060E087E00E94B5008091360290913702A5
:100AB000892B11F061E001C060E088E00E94B50080
:100AC0002FB7F89480913B0290913C02A0913D0297
:100AD000B0913E022FBF40911C0150911D016091C9
:100AE0001E0170911F018C019D01041B150B260B2B
:100AF000370B083211052105310508F46BC08093CE
:100B00001C0190931D01A0931E01B0931F019091B1
:100B1000010180EE890F813A28F0809100018195D2
:100B20008093000110910001190F10930101C12F52
:100B3000D0E061E089E00E945901111102C060E03B
:100B400003C01F3F29F461E089E00E94B50042C064
:100B5000F10184918330F9F048F48130B9F08230AA
:100B6000A1F584B5806284BD18BD34C08730E9F03A
:100B7000883019F1843049F580918000806280933B
:100B80008000D0938B00C0938A0024C084B5806815
:100B900084BD17BD1FC08091800080688093800055
:100BA000D0938900C093880015C08091B000806800
:100BB0008093B0001093B3000DC08091B0008062AC
:100BC0008093B0001093B40005C0C038D1050CF07C
:100BD000BACFB5CF87E492E00E947302892B09F463
:100BE0009DC20E947F03813509F43DC2B0F4813477
:100BF00009F44FC040F48033B1F18133C9F1803240
:100C000009F07AC26FC2853409F4DBC0803509F47B
:100C1000DDC0823409F070C251C0813609F42CC1A4
:100C2000C0F4863509F40EC2803609F423C1853537
:100C300009F062C20E947F03C82F0E947F0390E0E8
:100C4000982F88278C0F911D909335028093340242
:100C500025C2843709F49DC1853709F422C2843640
:100C600009F04AC20CC1109237021092360216C225
:100C70000E947F03803209F035C284E10E94F802AD
:100C800047E050E064E171E087E492E00E941402E2
:100C900027C20E947F03813859F020F4803861F424
:100CA00082E0DEC1823831F0833931F483E5D8C186
:100CB00081E0D6C182E1D4C180E0D2C184E190E07C
:100CC0000E94BA03209133012093200180913401C6
:100CD000809321018091350180932201809136011A
:100CE0008093230180913701809324018091380102
:100CF00080932501809139018093260180913A01EA
:100D00008093270180913B018093280180913D01D0
:100D100090E0982F882730913E01830F911D90938A
:100D20002A018093290180913F0190E0982F882724
:100D300030914001830F911D90932C0180932B01E2
:100D40008091410190E0982F882730914201830FD4
:100D5000911D90932E0180932D018091430190E08D
:100D6000A0E0B0E0BA2FA92F982F88273091440136
:100D7000830F911DA11DB11DDC019927882740918A
:100D8000450150E0542F4427052E000C660B770BCD
:100D9000840F951FA61FB71F30914601830F911D29
:100DA000A11DB11D80932F0190933001A0933101BB
:100DB000B093320181E0203E08F480E0809333025A
:100DC0006DC185E090E00E94BA0368C1809138024D
:100DD00090913902892B09F061C1C09133026C2FC7
:100DE0008AE00E94B50061E08AE00E94590160E05B
:100DF0008DE00E94B50060E08BE00E94B50061E0EC
:100E00008DE00E94590161E08BE00E94590160E091
:100E10008CE00E9459018092430290924402A09279
:100E20004502B092460260E08DE00E94B50064E1A8
:100E300070E080E090E00E94BA0161E06C278AE0F7
:100E40000E94B500C2010197F1F76C2F8AE00E9461
:100E5000B50062E370E080E090E00E94BA0120E01B
:100E600040E063E58CEA0E9451037092390260927F
:100E7000380214C10E947F030E947F030FC10E94A9
:100E80007F03C82F0E947F03D0E0DC2FCC27C80F40
:100E9000D11D0E947F03863409F043C0CE010E9419
:100EA000BA030E947F03803209F01CC184E10E94D2
:100EB000F8020E9435036C0133E3E32E31E0F32E98
:100EC000C701835391408C179D073CF50E94350361
:100ED0008C159D0531F0C6010E9465030E94350303
:100EE0006C010091340210913502F7012081402FEE
:100EF000612F80E40E945103F7012181402F612F6F
:100F000088E40E9451030F5F1F4F10933502009336
:100F10003402F2E0EF0EF11CD3CFC6010E9465034C
:100F2000DFC0853409F08CC080912D0190912E0195
:100F30008C179D0758F480913602909137020196E4
:100F40009093370280933602C1E117C000913402BA
:100F500010913502000F111FC132D10548F060E237
:100F600070E0C8010E94D003005E1F4FA097F4CF2D
:100F7000BE01C8010E94D003C0E10E947F038032FD
:100F800029F484E10E94F8028C2FC6C00E94290334
:100F9000C5C00E947F03C82F0E947F03082F0E94B4
:100FA0007F03182F0E947F03803219F00E942903CB
:100FB000B5C0D0E0DC2FCC27C00FD11D84E10E944A
:100FC000F802163421F5E12CF12CEC16FD060CF09C
:100FD00087C0009134021091350220E0402F612F2C
:100FE00080E20E9451030E94F80220E0402F612F0E
:100FF00088E20E9451030E94F8020F5F1F4F109376
:1010000035020093340202E0E00EF11CDECF15340D
:10101000B9F40091340210913502000F111FC00F76
:10102000D11FC017D10709F45BC02FEF402F612FEC
:1010300080EA0E9451030E94F8020F5F1F4FF1CF18
:1010400081E16AC084E090E00E94BA0320913601F9
:101050004091350160913401809133010E94510328
:101060000E948A035BC0109237021092360260E041
:101070008BE00E94590160E08DE00E94590160916F
:10108000330281E068278AE00E94B50060E08AE0D0
:101090000E94590110923902109238020E94A50351
:1010A0003DC00E947F038032E9F484E10E94F8028F
:1010B00020E040E060E080E30E9451030E94F802DB
:1010C00020E041E060E080E30E9451030E94F802CA
:1010D00020E042E060E080E30E9451030E94F802B9
:1010E00080E11AC080913602909137020196909368
:1010F0003702809336020FC08091360290913702FA
:10110000019690933702809336020E947F038032CB
:1011100011F482E101C085E10E94F8020E941F03E0
:10112000B7CCE7E4F2E01382128288EE93E0A0E00D
:10113000B0E084839583A683B78386E091E09183B2
:10114000808385EC90E09587848784EC90E0978796
:10115000868780EC90E0918B808B81EC90E0938B84
:10116000828B82EC90E0958B848B86EC90E0978B61
:10117000868B118E128E138E148E0895EE0FFF1F24
:101180000590F491E02D099481E090E0F8940C949E
:06119000C908F894FFCF2E
:10119600088000000000AB0214024202FD02730246
:0C11A6005102650241565220495350008E
:107E0000112484B714BE81FFF0D085E080938100F7
:107E100082E08093C00088E18093C10086E0809377
:107E2000C20080E18093C4008EE0C9D0259A86E02C
:107E300020E33CEF91E0309385002093840096BBD3
:107E4000B09BFECF1D9AA8958150A9F7CC24DD24C4
:107E500088248394B5E0AB2EA1E19A2EF3E0BF2EE7
:107E6000A2D0813461F49FD0082FAFD0023811F036
:107E7000013811F484E001C083E08DD089C08234E0
:107E800011F484E103C0853419F485E0A6D080C0E4
:107E9000853579F488D0E82EFF2485D0082F10E0AE
:107EA000102F00270E291F29000F111F8ED06801E7
:107EB0006FC0863521F484E090D080E0DECF843638
:107EC00009F040C070D06FD0082F6DD080E0C81688
:107ED00080E7D80618F4F601B7BEE895C0E0D1E017
:107EE00062D089930C17E1F7F0E0CF16F0E7DF06D8
:107EF00018F0F601B7BEE89568D007B600FCFDCFD4
:107F0000A601A0E0B1E02C9130E011968C91119780
:107F100090E0982F8827822B932B1296FA010C0160
:107F200087BEE89511244E5F5F4FF1E0A038BF0790
:107F300051F7F601A7BEE89507B600FCFDCF97BE46
:107F4000E89526C08437B1F42ED02DD0F82E2BD052
:107F50003CD0F601EF2C8F010F5F1F4F84911BD097
:107F6000EA94F801C1F70894C11CD11CFA94CF0C13
:107F7000D11C0EC0853739F428D08EE10CD085E9AC
:107F80000AD08FE07ACF813511F488E018D01DD067
:107F900080E101D065CF982F8091C00085FFFCCF94
:107FA0009093C60008958091C00087FFFCCF809118
:107FB000C00084FD01C0A8958091C6000895E0E648
:107FC000F0E098E1908380830895EDDF803219F02E
:107FD00088E0F5DFFFCF84E1DECF1F93182FE3DFCA
:107FE0001150E9F7F2DF1F91089580E0E8DFEE27F6
:047FF000FF270994CA
:027FFE00040479
:0400000300007E007B
:00000001FF
